:1000000023C03DC03CC03BC03AC039C03FC137C02F
:1000100036C035C034C033C032C031C030C02FC04C
:100020002EC02DC02CC025C4B3C3C8C3DDC3E9C3D3
:10003000EDC3F9C305C407C40BC40EC411C413C473
:100040001BC41AC419C412C411241FBECFE5D4E0C6
:10005000DEBFCDBF10E0A0E6B0E0EEEEF9E002C0FA
:1000600005900D92A438B107D9F710E0A4E8B0E0EC
:1000700001C01D92AA38B107E1F762D2B6C4C0CF61
:10008000C49A00C0C49808951F93662311F0C69ABD
:1000900001C0C698C598BB9ABA9AB99AB89AC0983E
:1000A000C198C298C39888230CF4C09A182F86FD73
:1000B000C19A15FDC29A14FDC39AE2DFC098C19897
:1000C000C298C39813FDC09A12FDC19A11FDC29A3D
:1000D00010FDC39AD5DFC39AC29AC19AC09A1F91E4
:1000E0000895882311F0C69A01C0C698C59ABB9896
:1000F000BA98B998B898C49A00C0B39902C080E081
:1001000001C080E1B2998062B1998064B099806841
:10011000C49800C0C49A00C0B3998160B29982604B
:10012000B1998460B0998860C498089580E0D9DF5F
:100130008823E4F300C080E0D4DF08951F93182FD4
:10014000F5DF812F60E0A0DF1F9108951F93182F26
:10015000EDDF812F61E098DF1F910895662319F488
:100160008058ECDF08958054E9DF0895DFDF90E0E8
:10017000089581E0E3DF089582E0E0DF08951F93B2
:10018000182FD4DF1A3041F4803410F480E401C019
:1001900080E08058D3DF03C0812F61E075DF1F91BD
:1001A0000895CF93DF93EC018881882329F021966D
:1001B000E6DF89918823E1F7DF91CF910895CF930E
:1001C000DF93EC01FC018491882339F02196D7DF7D
:1001D000FE01219684918823D1F7DF91CF91089574
:1001E0001F93CF93DF93182FBE9ABD9ABC9ABB9AE8
:1001F000BA9AB99AB89A80EA9FE00197F1F7C29A41
:10020000C39A3EDF80EE94E00197F1F739DFC0E159
:10021000D0E0CE010197F1F733DFCE010197F1F77E
:10022000C3982EDF2197F1F788E288DF88E086DF28
:10023000A0DF86E083DF812F81DFDF91CF911F91E7
:10024000089581E082BB81EE94E00197F1F700C050
:10025000000080B382E082BB81EE94E00197F1F769
:1002600000C0000080B384E082BB81EE94E001977F
:10027000F1F700C0000080B388E082BB81EE94E01B
:100280000197F1F700C0000080B308951F920F920C
:100290000FB60F9211242F933F938F939F938FEC60
:1002A0008DBD8CE28CBD80918200882309F09DC0B9
:1002B00080918400813009F05DC08091850090912B
:1002C0008600181619068CF5809187009091880099
:1002D00018161906CCF485B3837F85BB8091850001
:1002E00090918600019790938600809385002091DD
:1002F000870030918800215030403093880020934F
:100300008700181619068CF4809187009091880058
:10031000009759F4AA98AB9A809185009091860035
:10032000019790938600809385008091850090913D
:1003300086000097F9F48091870090918800181644
:1003400019066CF4AB98AA9A019790938800809351
:1003500087008091850090918600009759F48091E4
:10036000870090918800009729F41092840085B34B
:100370008C6085BB809184008230B9F580918500C6
:1003800090918600181619068CF480918700909140
:100390008800009759F4AA98AB9A809185009091B3
:1003A0008600019790938600809385008091870056
:1003B00090918800181619063CF4AB98AA9A0197F8
:1003C00090938800809387008091850090918600AB
:1003D000009759F48091870090918800009729F444
:1003E0001092840085B38C6085BB8091820081303F
:1003F00009F09DC080918400813009F05DC080913A
:10040000850090918600181619068CF5809187005A
:100410009091880018161906CCF485B38C6085BBC2
:10042000809185009091860001979093860080933B
:100430008500209187003091880021503040309312
:10044000880020938700181619068CF48091870085
:1004500090918800009759F4AA9AAB9880918500F2
:1004600090918600019790938600809385008091FB
:100470008500909186000097F9F480918700909113
:100480008800181619066CF4AB9AAA9801979093F5
:100490008800809387008091850090918600009766
:1004A00059F48091870090918800009729F4109268
:1004B000840085B3837F85BB809184008230B9F549
:1004C0008091850090918600181619068CF4809111
:1004D000870090918800009759F4AA9AAB98809170
:1004E0008500909186000197909386008093850007
:1004F0008091870090918800181619063CF4AB9AF9
:10050000AA98019790938800809387008091850036
:1005100090918600009759F480918700909188000F
:10052000009729F41092840085B3837F85BB9F9147
:100530008F913F912F910F900FBE0F901F901895A4
:100540002F923F924F925F926F927F928F929F92E3
:10055000AF92BF92CF92DF92EF92FF920F931F93D1
:10056000DF93CF93CDB7DEB760970FB6F894DEBFB9
:100570000FBECDBF8FEF84BB80918200882311F422
:100580008CEF85BB80918200813011F480EC85BBBB
:100590008FE081BB12BA1FBC8AE08EBD80E38BBDA9
:1005A00084ED8ABD8FEC8DBD8CE28CBD80E189BF6E
:1005B00078948CE015DEBB24B3946624689461F8CB
:1005C0005524689452F8FF244424689443F80F2E6D
:1005D000F5E03F2EF02D0F2EF6E0AF2EF02D0F2E72
:1005E000F7E02F2EF02D0F2EF9E07F2EF02D8E014B
:1005F0000F5F1F4F0F2EF0E68F2EF0E09F2EF02D95
:10060000B2BA81EE94E00197F1F700C0000080B328
:10061000807F803249F0803449F0B88A803109F017
:10062000F88A803831F006C0688A04C093E0988B5D
:1006300001C0588A62BA81EE94E00197F1F700C0D8
:10064000000080B3807F803129F0803239F080341F
:1006500039F001C0388A803829F005C0A88A03C063
:10066000288A01C0488A52BA81EE94E00197F1F7D6
:1006700000C0000080B3807F803129F0803239F0E3
:10068000803441F001C0788A803839F008C09AE09F
:10069000988B05C08BE0888B02C09CE0988B42BA97
:1006A00081EE94E00197F1F700C0000080B3807FF5
:1006B000803129F0803241F0803449F002C09DE061
:1006C000988B803839F008C08EE0888B05C09FE099
:1006D000988B02C080E1888B4CDD8F2D6F2D3EDD25
:1006E00080918500909186000F2EFAE0CF2EDD24B8
:1006F000F02DB60124D1862F9F2DB8014AE050E09D
:1007000045D1C8014EDDC4014CDD8091850090913A
:100710008600B60114D19F2DB8014AE050E036D1D1
:10072000C8013FDD8A2D6F2D19DD82E690E039DDAD
:10073000872D6F2D13DD8091870090918800B60181
:10074000FED0862F9F2DB8014AE050E01FD1C8018E
:1007500028DDC40126DD8091870090918800B601D4
:10076000EED09F2DB8014AE050E010D1C80119DD4C
:100770008EE06F2DF3DC84E690E013DD9889E92F9D
:10078000F0E0E131F10508F077C0ED5EFF4F09942C
:100790008091850090918600823391054CF00A96F5
:1007A0009093860080938500823391050CF064C09D
:1007B000019690938600809385005EC080918700AB
:1007C00090918800823391054CF00A9690938800AE
:1007D00080938700823391050CF04EC00196909370
:1007E00088008093870048C089E190E0909386005C
:1007F000809385008EE190E090938800809387003D
:100800003BC095B380E1892785BB36C080918500C8
:1008100090918600181619067CF501979093860032
:100820008093850029C080918700909188001816D8
:10083000190614F5019790938800809387001CC0D7
:10084000B092840019C095B380E2892785BB14C09B
:1008500085B3852585BB10C085B3842585BB0CC0B9
:100860006092840009C0A898A99A06C0A998A89A7D
:1008700003C085B38C7F85BBE5B2E4FE07C0832D42
:100880006B2D6CDC86E690E08CDC06C0832D6B2D36
:1008900065DC88E690E085DCE5FE07C08A2D6B2DDF
:1008A0005DDC8AE690E07DDC06C08A2D6B2D56DC8F
:1008B0008CE690E076DCE2FE07C0822D6F2D4EDCE8
:1008C0008EE690E06EDC06C0822D6F2D47DC80E75F
:1008D00090E067DCE3FE07C08FE06F2D3FDC8EE623
:1008E00090E05FDC06C08FE06F2D38DC80E790E0A1
:1008F00058DC80918400813031F4872D6B2D2EDC03
:1009000082E790E04EDC80918400823031F4872DC4
:100910006B2D24DC8AE790E044DC8F2D6B2D1EDCF0
:1009200088899F2DB8014AE050E030D0C80139DCF9
:100930008FE493EC0197F1F700C0000061CE97FBC4
:10094000092E07260AD077FD04D00CD006D000204F
:100950001AF4709561957F4F0895F6F790958195FB
:100960009F4F0895AA1BBB1B51E107C0AA1FBB1FC5
:10097000A617B70710F0A61BB70B881F991F5A952B
:10098000A9F780959095BC01CD010895FB019F01C9
:10099000E8944230BCF04532ACF44A3029F497FB7D
:1009A0001EF4909581959F4F642F7727DBDF805D44
:1009B0008A330CF0895D8193CB010097A9F716F477
:1009C0005DE251931082C90100C0DC01FC01672F78
:1009D00071917723E1F7329704C07C916D93708316
:0E09E0006291AE17BF07C8F30895F894FFCFD9
:1009EE002E004200470072005200790059002D007F
:1009FE002B0052554E20472B420052554E20473E5B
:040A0E0042000100A1
:00000001FF
